{"project/build/solidity/Staking.sol":{"Staking":{"abi":[{"inputs":[{"internalType":"address","name":"account","type":"address"},{"internalType":"uint256","name":"deposited","type":"uint256"},{"internalType":"uint256","name":"requested","type":"uint256"}],"name":"InsufficientDeposit","type":"error"},{"inputs":[{"internalType":"address","name":"caller","type":"address"}],"name":"NotOwner","type":"error"},{"inputs":[],"name":"VaultPaused","type":"error"},{"anonymous":false,"inputs":[{"indexed":true,"internalType":"address","name":"account","type":"address"},{"indexed":false,"internalType":"uint256","name":"amount","type":"uint256"},{"indexed":false,"internalType":"uint256","name":"timestamp","type":"uint256"}],"name":"Deposited","type":"event"},{"anonymous":false,"inputs":[{"indexed":false,"internalType":"uint256","name":"newStatus","type":"uint256"}],"name":"StatusChanged","type":"event"},{"anonymous":false,"inputs":[{"indexed":true,"internalType":"address","name":"account","type":"address"},{"indexed":false,"internalType":"uint256","name":"amount","type":"uint256"}],"name":"Withdrawn","type":"event"},{"inputs":[],"name":"BASIS_POINTS_DENOMINATOR","outputs":[{"internalType":"uint256","name":"","type":"uint256"}],"stateMutability":"view","type":"function"},{"inputs":[],"name":"FEE_BASIS_POINTS","outputs":[{"internalType":"uint256","name":"","type":"uint256"}],"stateMutability":"view","type":"function"},{"inputs":[],"name":"deposit","outputs":[],"stateMutability":"payable","type":"function"},{"inputs":[{"internalType":"address","name":"account","type":"address"}],"name":"getDeposit","outputs":[{"internalType":"uint256","name":"","type":"uint256"}],"stateMutability":"view","type":"function"},{"inputs":[{"internalType":"address","name":"account","type":"address"}],"name":"getDepositTimestamp","outputs":[{"internalType":"uint256","name":"","type":"uint256"}],"stateMutability":"view","type":"function"},{"inputs":[{"internalType":"address","name":"account","type":"address"}],"name":"getStakeInfo","outputs":[{"components":[{"internalType":"uint256","name":"amount","type":"uint256"},{"internalType":"uint256","name":"timestamp","type":"uint256"},{"internalType":"address","name":"account","type":"address"}],"internalType":"struct Staking.StakeInfo","name":"","type":"tuple"}],"stateMutability":"view","type":"function"},{"inputs":[],"name":"owner","outputs":[{"internalType":"address","name":"","type":"address"}],"stateMutability":"view","type":"function"},{"inputs":[],"name":"pause","outputs":[],"stateMutability":"nonpayable","type":"function"},{"inputs":[],"name":"status","outputs":[{"internalType":"enum Staking.VaultStatus","name":"","type":"uint8"}],"stateMutability":"view","type":"function"},{"inputs":[],"name":"totalDeposited","outputs":[{"internalType":"uint256","name":"","type":"uint256"}],"stateMutability":"view","type":"function"},{"inputs":[],"name":"totalFees","outputs":[{"internalType":"uint256","name":"","type":"uint256"}],"stateMutability":"view","type":"function"},{"inputs":[],"name":"unpause","outputs":[],"stateMutability":"nonpayable","type":"function"},{"inputs":[{"internalType":"uint256","name":"amount","type":"uint256"}],"name":"withdraw","outputs":[],"stateMutability":"nonpayable","type":"function"},{"stateMutability":"payable","type":"receive"}],"evm":{"bytecode":{"linkReferences":{},"object":"60a0604052336080525f600181905560025534801561001c575f80fd5b5060805161075a61003c5f395f818161017c01526105f0015261075a5ff3fe6080604052600436106100c2575f3560e01c8063a525ad3c1161007c578063d0e30db011610057578063d0e30db014610229578063da7a77be14610231578063e1254fba14610265578063ff50abdc14610299575f80fd5b8063a525ad3c146101b6578063c3453153146101ca578063cfa498a314610214575f80fd5b806313114a9d146100d7578063200d2ed2146100ff5780632e1a7d4d146101245780633f4ba83a146101435780638456cb59146101575780638da5cb5b1461016b575f80fd5b366100d3576100d133346102ae565b005b5f80fd5b3480156100e2575f80fd5b506100ec60025481565b6040519081526020015b60405180910390f35b34801561010a575f80fd5b505f546101179060ff1681565b6040516100f69190610644565b34801561012f575f80fd5b506100d161013e36600461066a565b61035a565b34801561014e575f80fd5b506100d161046e565b348015610162575f80fd5b506100d16104b5565b348015610176575f80fd5b5061019e7f000000000000000000000000000000000000000000000000000000000000000081565b6040516001600160a01b0390911681526020016100f6565b3480156101c1575f80fd5b506100ec603281565b3480156101d5575f80fd5b506101e96101e4366004610681565b6104fc565b604080518251815260208084015190820152918101516001600160a01b0316908201526060016100f6565b34801561021f575f80fd5b506100ec61271081565b6100d1610564565b34801561023c575f80fd5b506100ec61024b366004610681565b6001600160a01b03165f9081526004602052604090205490565b348015610270575f80fd5b506100ec61027f366004610681565b6001600160a01b03165f9081526003602052604090205490565b3480156102a4575f80fd5b506100ec60015481565b6102b66105af565b6001600160a01b0382165f90815260036020526040812080548392906102dd9084906106c2565b90915550506001600160a01b0382165f9081526004602052604081204290556001805483929061030e9084906106c2565b9091555050604080518281524260208201526001600160a01b038416917f73a19dd210f1a7f902193214c0ee91dd35ee5b4d920cba8d519eca65a7b488ca910160405180910390a25050565b6103626105af565b335f908152600360205260409020548111156103b657335f8181526003602052604090819020549051632fc28c5360e01b815260048101929092526024820152604481018290526064015b60405180910390fd5b5f6127106103c56032846106db565b6103cf91906106f2565b90505f6103dc8284610711565b335f908152600360205260408120805492935085929091906103ff908490610711565b925050819055508260015f8282546104179190610711565b925050819055508160025f82825461042f91906106c2565b909155505060405181815233907f7084f5476618d8e60b11ef0d7d3f06914655adb8793e28ff7f018d4c76d505d59060200160405180910390a2505050565b6104766105e5565b5f805460ff191681556040519081527ff3daf54aec5860f0f13cb1123778b256daa0b27653fd836691b4bc0eb288c610906020015b60405180910390a1565b6104bd6105e5565b5f805460ff191660019081179091556040519081527ff3daf54aec5860f0f13cb1123778b256daa0b27653fd836691b4bc0eb288c610906020016104ab565b61052660405180606001604052805f81526020015f81526020015f6001600160a01b031681525090565b50604080516060810182526001600160a01b039092165f81815260036020908152838220548552828252600481529083902054908401529082015290565b345f036105a35760405162461bcd60e51b815260206004820152600d60248201526c09aeae6e840e6cadcc8408aa89609b1b60448201526064016103ad565b6105ad33346102ae565b565b60015f5460ff1660018111156105c7576105c7610630565b036105ad576040516336a7e2cd60e21b815260040160405180910390fd5b336001600160a01b037f000000000000000000000000000000000000000000000000000000000000000016146105ad5760405163245aecd360e01b81523360048201526024016103ad565b634e487b7160e01b5f52602160045260245ffd5b602081016002831061066457634e487b7160e01b5f52602160045260245ffd5b91905290565b5f6020828403121561067a575f80fd5b5035919050565b5f60208284031215610691575f80fd5b81356001600160a01b03811681146106a7575f80fd5b9392505050565b634e487b7160e01b5f52601160045260245ffd5b808201808211156106d5576106d56106ae565b92915050565b80820281158282048414176106d5576106d56106ae565b5f8261070c57634e487b7160e01b5f52601260045260245ffd5b500490565b818103818111156106d5576106d56106ae56fea26469706673582212204520bffabd77b246411c1be0e6987a1c47860d5f235c39cf4169dba1dc96a7ea64736f6c63430008140033","opcodes":"PUSH1 0xA0 PUSH1 0x40 MSTORE CALLER PUSH1 0x80 MSTORE PUSH0 PUSH1 0x1 DUP2 SWAP1 SSTORE PUSH1 0x2 SSTORE CALLVALUE DUP1 ISZERO PUSH2 0x1C JUMPI PUSH0 DUP1 REVERT JUMPDEST POP PUSH1 0x80 MLOAD PUSH2 0x75A PUSH2 0x3C PUSH0 CODECOPY PUSH0 DUP2 DUP2 PUSH2 0x17C ADD MSTORE PUSH2 0x5F0 ADD MSTORE PUSH2 0x75A PUSH0 RETURN INVALID PUSH1 0x80 PUSH1 0x40 MSTORE PUSH1 0x4 CALLDATASIZE LT PUSH2 0xC2 JUMPI PUSH0 CALLDATALOAD PUSH1 0xE0 SHR DUP1 PUSH4 0xA525AD3C GT PUSH2 0x7C JUMPI DUP1 PUSH4 0xD0E30DB0 GT PUSH2 0x57 JUMPI DUP1 PUSH4 0xD0E30DB0 EQ PUSH2 0x229 JUMPI DUP1 PUSH4 0xDA7A77BE EQ PUSH2 0x231 JUMPI DUP1 PUSH4 0xE1254FBA EQ PUSH2 0x265 JUMPI DUP1 PUSH4 0xFF50ABDC EQ PUSH2 0x299 JUMPI PUSH0 DUP1 REVERT JUMPDEST DUP1 PUSH4 0xA525AD3C EQ PUSH2 0x1B6 JUMPI DUP1 PUSH4 0xC3453153 EQ PUSH2 0x1CA JUMPI DUP1 PUSH4 0xCFA498A3 EQ PUSH2 0x214 JUMPI PUSH0 DUP1 REVERT JUMPDEST DUP1 PUSH4 0x13114A9D EQ PUSH2 0xD7 JUMPI DUP1 PUSH4 0x200D2ED2 EQ PUSH2 0xFF JUMPI DUP1 PUSH4 0x2E1A7D4D EQ PUSH2 0x124 JUMPI DUP1 PUSH4 0x3F4BA83A EQ PUSH2 0x143 JUMPI DUP1 PUSH4 0x8456CB59 EQ PUSH2 0x157 JUMPI DUP1 PUSH4 0x8DA5CB5B EQ PUSH2 0x16B JUMPI PUSH0 DUP1 REVERT JUMPDEST CALLDATASIZE PUSH2 0xD3 JUMPI PUSH2 0xD1 CALLER CALLVALUE PUSH2 0x2AE JUMP JUMPDEST STOP JUMPDEST PUSH0 DUP1 REVERT JUMPDEST CALLVALUE DUP1 ISZERO PUSH2 0xE2 JUMPI PUSH0 DUP1 REVERT JUMPDEST POP PUSH2 0xEC PUSH1 0x2 SLOAD DUP2 JUMP JUMPDEST PUSH1 0x40 MLOAD SWAP1 DUP2 MSTORE PUSH1 0x20 ADD JUMPDEST PUSH1 0x40 MLOAD DUP1 SWAP2 SUB SWAP1 RETURN JUMPDEST CALLVALUE DUP1 ISZERO PUSH2 0x10A JUMPI PUSH0 DUP1 REVERT JUMPDEST POP PUSH0 SLOAD PUSH2 0x117 SWAP1 PUSH1 0xFF AND DUP2 JUMP JUMPDEST PUSH1 0x40 MLOAD PUSH2 0xF6 SWAP2 SWAP1 PUSH2 0x644 JUMP JUMPDEST CALLVALUE DUP1 ISZERO PUSH2 0x12F JUMPI PUSH0 DUP1 REVERT JUMPDEST POP PUSH2 0xD1 PUSH2 0x13E CALLDATASIZE PUSH1 0x4 PUSH2 0x66A JUMP JUMPDEST PUSH2 0x35A JUMP JUMPDEST CALLVALUE DUP1 ISZERO PUSH2 0x14E JUMPI PUSH0 DUP1 REVERT JUMPDEST POP PUSH2 0xD1 PUSH2 0x46E JUMP JUMPDEST CALLVALUE DUP1 ISZERO PUSH2 0x162 JUMPI PUSH0 DUP1 REVERT JUMPDEST POP PUSH2 0xD1 PUSH2 0x4B5 JUMP JUMPDEST CALLVALUE DUP1 ISZERO PUSH2 0x176 JUMPI PUSH0 DUP1 REVERT JUMPDEST POP PUSH2 0x19E PUSH32 0x0 DUP2 JUMP JUMPDEST PUSH1 0x40 MLOAD PUSH1 0x1 PUSH1 0x1 PUSH1 0xA0 SHL SUB SWAP1 SWAP2 AND DUP2 MSTORE PUSH1 0x20 ADD PUSH2 0xF6 JUMP JUMPDEST CALLVALUE DUP1 ISZERO PUSH2 0x1C1 JUMPI PUSH0 DUP1 REVERT JUMPDEST POP PUSH2 0xEC PUSH1 0x32 DUP2 JUMP JUMPDEST CALLVALUE DUP1 ISZERO PUSH2 0x1D5 JUMPI PUSH0 DUP1 REVERT JUMPDEST POP PUSH2 0x1E9 PUSH2 0x1E4 CALLDATASIZE PUSH1 0x4 PUSH2 0x681 JUMP JUMPDEST PUSH2 0x4FC JUMP JUMPDEST PUSH1 0x40 DUP1 MLOAD DUP3 MLOAD DUP2 MSTORE PUSH1 0x20 DUP1 DUP5 ADD MLOAD SWAP1 DUP3 ADD MSTORE SWAP2 DUP2 ADD MLOAD PUSH1 0x1 PUSH1 0x1 PUSH1 0xA0 SHL SUB AND SWAP1 DUP3 ADD MSTORE PUSH1 0x60 ADD PUSH2 0xF6 JUMP JUMPDEST CALLVALUE DUP1 ISZERO PUSH2 0x21F JUMPI PUSH0 DUP1 REVERT JUMPDEST POP PUSH2 0xEC PUSH2 0x2710 DUP2 JUMP JUMPDEST PUSH2 0xD1 PUSH2 0x564 JUMP JUMPDEST CALLVALUE DUP1 ISZERO PUSH2 0x23C JUMPI PUSH0 DUP1 REVERT JUMPDEST POP PUSH2 0xEC PUSH2 0x24B CALLDATASIZE PUSH1 0x4 PUSH2 0x681 JUMP JUMPDEST PUSH1 0x1 PUSH1 0x1 PUSH1 0xA0 SHL SUB AND PUSH0 SWAP1 DUP2 MSTORE PUSH1 0x4 PUSH1 0x20 MSTORE PUSH1 0x40 SWAP1 KECCAK256 SLOAD SWAP1 JUMP JUMPDEST CALLVALUE DUP1 ISZERO PUSH2 0x270 JUMPI PUSH0 DUP1 REVERT JUMPDEST POP PUSH2 0xEC PUSH2 0x27F CALLDATASIZE PUSH1 0x4 PUSH2 0x681 JUMP JUMPDEST PUSH1 0x1 PUSH1 0x1 PUSH1 0xA0 SHL SUB AND PUSH0 SWAP1 DUP2 MSTORE PUSH1 0x3 PUSH1 0x20 MSTORE PUSH1 0x40 SWAP1 KECCAK256 SLOAD SWAP1 JUMP JUMPDEST CALLVALUE DUP1 ISZERO PUSH2 0x2A4 JUMPI PUSH0 DUP1 REVERT JUMPDEST POP PUSH2 0xEC PUSH1 0x1 SLOAD DUP2 JUMP JUMPDEST PUSH2 0x2B6 PUSH2 0x5AF JUMP JUMPDEST PUSH1 0x1 PUSH1 0x1 PUSH1 0xA0 SHL SUB DUP3 AND PUSH0 SWAP1 DUP2 MSTORE PUSH1 0x3 PUSH1 0x20 MSTORE PUSH1 0x40 DUP2 KECCAK256 DUP1 SLOAD DUP4 SWAP3 SWAP1 PUSH2 0x2DD SWAP1 DUP5 SWAP1 PUSH2 0x6C2 JUMP JUMPDEST SWAP1 SWAP2 SSTORE POP POP PUSH1 0x1 PUSH1 0x1 PUSH1 0xA0 SHL SUB DUP3 AND PUSH0 SWAP1 DUP2 MSTORE PUSH1 0x4 PUSH1 0x20 MSTORE PUSH1 0x40 DUP2 KECCAK256 TIMESTAMP SWAP1 SSTORE PUSH1 0x1 DUP1 SLOAD DUP4 SWAP3 SWAP1 PUSH2 0x30E SWAP1 DUP5 SWAP1 PUSH2 0x6C2 JUMP JUMPDEST SWAP1 SWAP2 SSTORE POP POP PUSH1 0x40 DUP1 MLOAD DUP3 DUP2 MSTORE TIMESTAMP PUSH1 0x20 DUP3 ADD MSTORE PUSH1 0x1 PUSH1 0x1 PUSH1 0xA0 SHL SUB DUP5 AND SWAP2 PUSH32 0x73A19DD210F1A7F902193214C0EE91DD35EE5B4D920CBA8D519ECA65A7B488CA SWAP2 ADD PUSH1 0x40 MLOAD DUP1 SWAP2 SUB SWAP1 LOG2 POP POP JUMP JUMPDEST PUSH2 0x362 PUSH2 0x5AF JUMP JUMPDEST CALLER PUSH0 SWAP1 DUP2 MSTORE PUSH1 0x3 PUSH1 0x20 MSTORE PUSH1 0x40 SWAP1 KECCAK256 SLOAD DUP2 GT ISZERO PUSH2 0x3B6 JUMPI CALLER PUSH0 DUP2 DUP2 MSTORE PUSH1 0x3 PUSH1 0x20 MSTORE PUSH1 0x40 SWAP1 DUP2 SWAP1 KECCAK256 SLOAD SWAP1 MLOAD PUSH4 0x2FC28C53 PUSH1 0xE0 SHL DUP2 MSTORE PUSH1 0x4 DUP2 ADD SWAP3 SWAP1 SWAP3 MSTORE PUSH1 0x24 DUP3 ADD MSTORE PUSH1 0x44 DUP2 ADD DUP3 SWAP1 MSTORE PUSH1 0x64 ADD JUMPDEST PUSH1 0x40 MLOAD DUP1 SWAP2 SUB SWAP1 REVERT JUMPDEST PUSH0 PUSH2 0x2710 PUSH2 0x3C5 PUSH1 0x32 DUP5 PUSH2 0x6DB JUMP JUMPDEST PUSH2 0x3CF SWAP2 SWAP1 PUSH2 0x6F2 JUMP JUMPDEST SWAP1 POP PUSH0 PUSH2 0x3DC DUP3 DUP5 PUSH2 0x711 JUMP JUMPDEST CALLER PUSH0 SWAP1 DUP2 MSTORE PUSH1 0x3 PUSH1 0x20 MSTORE PUSH1 0x40 DUP2 KECCAK256 DUP1 SLOAD SWAP3 SWAP4 POP DUP6 SWAP3 SWAP1 SWAP2 SWAP1 PUSH2 0x3FF SWAP1 DUP5 SWAP1 PUSH2 0x711 JUMP JUMPDEST SWAP3 POP POP DUP2 SWAP1 SSTORE POP DUP3 PUSH1 0x1 PUSH0 DUP3 DUP3 SLOAD PUSH2 0x417 SWAP2 SWAP1 PUSH2 0x711 JUMP JUMPDEST SWAP3 POP POP DUP2 SWAP1 SSTORE POP DUP2 PUSH1 0x2 PUSH0 DUP3 DUP3 SLOAD PUSH2 0x42F SWAP2 SWAP1 PUSH2 0x6C2 JUMP JUMPDEST SWAP1 SWAP2 SSTORE POP POP PUSH1 0x40 MLOAD DUP2 DUP2 MSTORE CALLER SWAP1 PUSH32 0x7084F5476618D8E60B11EF0D7D3F06914655ADB8793E28FF7F018D4C76D505D5 SWAP1 PUSH1 0x20 ADD PUSH1 0x40 MLOAD DUP1 SWAP2 SUB SWAP1 LOG2 POP POP POP JUMP JUMPDEST PUSH2 0x476 PUSH2 0x5E5 JUMP JUMPDEST PUSH0 DUP1 SLOAD PUSH1 0xFF NOT AND DUP2 SSTORE PUSH1 0x40 MLOAD SWAP1 DUP2 MSTORE PUSH32 0xF3DAF54AEC5860F0F13CB1123778B256DAA0B27653FD836691B4BC0EB288C610 SWAP1 PUSH1 0x20 ADD JUMPDEST PUSH1 0x40 MLOAD DUP1 SWAP2 SUB SWAP1 LOG1 JUMP JUMPDEST PUSH2 0x4BD PUSH2 0x5E5 JUMP JUMPDEST PUSH0 DUP1 SLOAD PUSH1 0xFF NOT AND PUSH1 0x1 SWAP1 DUP2 OR SWAP1 SWAP2 SSTORE PUSH1 0x40 MLOAD SWAP1 DUP2 MSTORE PUSH32 0xF3DAF54AEC5860F0F13CB1123778B256DAA0B27653FD836691B4BC0EB288C610 SWAP1 PUSH1 0x20 ADD PUSH2 0x4AB JUMP JUMPDEST PUSH2 0x526 PUSH1 0x40 MLOAD DUP1 PUSH1 0x60 ADD PUSH1 0x40 MSTORE DUP1 PUSH0 DUP2 MSTORE PUSH1 0x20 ADD PUSH0 DUP2 MSTORE PUSH1 0x20 ADD PUSH0 PUSH1 0x1 PUSH1 0x1 PUSH1 0xA0 SHL SUB AND DUP2 MSTORE POP SWAP1 JUMP JUMPDEST POP PUSH1 0x40 DUP1 MLOAD PUSH1 0x60 DUP2 ADD DUP3 MSTORE PUSH1 0x1 PUSH1 0x1 PUSH1 0xA0 SHL SUB SWAP1 SWAP3 AND PUSH0 DUP2 DUP2 MSTORE PUSH1 0x3 PUSH1 0x20 SWAP1 DUP2 MSTORE DUP4 DUP3 KECCAK256 SLOAD DUP6 MSTORE DUP3 DUP3 MSTORE PUSH1 0x4 DUP2 MSTORE SWAP1 DUP4 SWAP1 KECCAK256 SLOAD SWAP1 DUP5 ADD MSTORE SWAP1 DUP3 ADD MSTORE SWAP1 JUMP JUMPDEST CALLVALUE PUSH0 SUB PUSH2 0x5A3 JUMPI PUSH1 0x40 MLOAD PUSH3 0x461BCD PUSH1 0xE5 SHL DUP2 MSTORE PUSH1 0x20 PUSH1 0x4 DUP3 ADD MSTORE PUSH1 0xD PUSH1 0x24 DUP3 ADD MSTORE PUSH13 0x9AEAE6E840E6CADCC8408AA89 PUSH1 0x9B SHL PUSH1 0x44 DUP3 ADD MSTORE PUSH1 0x64 ADD PUSH2 0x3AD JUMP JUMPDEST PUSH2 0x5AD CALLER CALLVALUE PUSH2 0x2AE JUMP JUMPDEST JUMP JUMPDEST PUSH1 0x1 PUSH0 SLOAD PUSH1 0xFF AND PUSH1 0x1 DUP2 GT ISZERO PUSH2 0x5C7 JUMPI PUSH2 0x5C7 PUSH2 0x630 JUMP JUMPDEST SUB PUSH2 0x5AD JUMPI PUSH1 0x40 MLOAD PUSH4 0x36A7E2CD PUSH1 0xE2 SHL DUP2 MSTORE PUSH1 0x4 ADD PUSH1 0x40 MLOAD DUP1 SWAP2 SUB SWAP1 REVERT JUMPDEST CALLER PUSH1 0x1 PUSH1 0x1 PUSH1 0xA0 SHL SUB PUSH32 0x0 AND EQ PUSH2 0x5AD JUMPI PUSH1 0x40 MLOAD PUSH4 0x245AECD3 PUSH1 0xE0 SHL DUP2 MSTORE CALLER PUSH1 0x4 DUP3 ADD MSTORE PUSH1 0x24 ADD PUSH2 0x3AD JUMP JUMPDEST PUSH4 0x4E487B71 PUSH1 0xE0 SHL PUSH0 MSTORE PUSH1 0x21 PUSH1 0x4 MSTORE PUSH1 0x24 PUSH0 REVERT JUMPDEST PUSH1 0x20 DUP2 ADD PUSH1 0x2 DUP4 LT PUSH2 0x664 JUMPI PUSH4 0x4E487B71 PUSH1 0xE0 SHL PUSH0 MSTORE PUSH1 0x21 PUSH1 0x4 MSTORE PUSH1 0x24 PUSH0 REVERT JUMPDEST SWAP2 SWAP1 MSTORE SWAP1 JUMP JUMPDEST PUSH0 PUSH1 0x20 DUP3 DUP5 SUB SLT ISZERO PUSH2 0x67A JUMPI PUSH0 DUP1 REVERT JUMPDEST POP CALLDATALOAD SWAP2 SWAP1 POP JUMP JUMPDEST PUSH0 PUSH1 0x20 DUP3 DUP5 SUB SLT ISZERO PUSH2 0x691 JUMPI PUSH0 DUP1 REVERT JUMPDEST DUP2 CALLDATALOAD PUSH1 0x1 PUSH1 0x1 PUSH1 0xA0 SHL SUB DUP2 AND DUP2 EQ PUSH2 0x6A7 JUMPI PUSH0 DUP1 REVERT JUMPDEST SWAP4 SWAP3 POP POP POP JUMP JUMPDEST PUSH4 0x4E487B71 PUSH1 0xE0 SHL PUSH0 MSTORE PUSH1 0x11 PUSH1 0x4 MSTORE PUSH1 0x24 PUSH0 REVERT JUMPDEST DUP1 DUP3 ADD DUP1 DUP3 GT ISZERO PUSH2 0x6D5 JUMPI PUSH2 0x6D5 PUSH2 0x6AE JUMP JUMPDEST SWAP3 SWAP2 POP POP JUMP JUMPDEST DUP1 DUP3 MUL DUP2 ISZERO DUP3 DUP3 DIV DUP5 EQ OR PUSH2 0x6D5 JUMPI PUSH2 0x6D5 PUSH2 0x6AE JUMP JUMPDEST PUSH0 DUP3 PUSH2 0x70C JUMPI PUSH4 0x4E487B71 PUSH1 0xE0 SHL PUSH0 MSTORE PUSH1 0x12 PUSH1 0x4 MSTORE PUSH1 0x24 PUSH0 REVERT JUMPDEST POP DIV SWAP1 JUMP JUMPDEST DUP2 DUP2 SUB DUP2 DUP2 GT ISZERO PUSH2 0x6D5 JUMPI PUSH2 0x6D5 PUSH2 0x6AE JUMP INVALID LOG2 PUSH5 0x6970667358 0x22 SLT KECCAK256 GASLIMIT KECCAK256 0xBF STATICCALL 0xBD PUSH24 0xB246411C1BE0E6987A1C47860D5F235C39CF4169DBA1DC96 0xA7 0xEA PUSH5 0x736F6C6343 STOP ADDMOD EQ STOP CALLER "},"methodIdentifiers":{"BASIS_POINTS_DENOMINATOR()":"cfa498a3","FEE_BASIS_POINTS()":"a525ad3c","deposit()":"d0e30db0","getDeposit(address)":"e1254fba","getDepositTimestamp(address)":"da7a77be","getStakeInfo(address)":"c3453153","owner()":"8da5cb5b","pause()":"8456cb59","status()":"200d2ed2","totalDeposited()":"ff50abdc","totalFees()":"13114a9d","unpause()":"3f4ba83a","withdraw(uint256)":"2e1a7d4d"}}}}}